:1003940042000300004100082841000728410005ED
:1003A4000041000200410000004100010041000939
:0103B4000048
:1003BA00E4FDFCC3ED9FEC9E5015E4FBFA0BBB0079
:0F03CA00010ABA02F8BBCBF50DBD00010C80E4AF
:0103D9002201
:10049600D2B9438901758CFC758AE0D2A9D28CD277
:0204A600AF2283
:1002440012050612033E120496120510900005E0F2
:10025400C3940540F7E4F0900000E004F0E0942833
:100264004014E4F0A3E06006C294E4F08008D29461
:100274009000017401F0900009E014F0E0700504AE
:10028400F012050690000AE0B401C1E4F090000603
:10029400E024BE601314601514601724FB60182456
:1002A4000870171204F080121204FB800D1204D897
:1002B40080081204E48003120506900006E0FF1291
:0402C40004CC80885E
:03000B000202C826
:1002C800C0E0C0F0C083C082C0D075D000C000C0FC
:1002D80001C002C003C004C005C006C007758CFC7D
:1002E800758AE0900002E004F0E0C394054008E459
:1002F800F0900005E004F0900004E004F07006902F
:100308000003E004F0C3900004E09432900003E09E
:1003180094004004E4F0A3F012010FD007D006D0F7
:1003280005D004D003D002D001D000D0D0D082D0E4
:0603380083D0F0D0E0329A
:1004810048616E74656368204D435500436F6D6D1F
:05049100616E643A00F9
:1003DA00E4FDFCC3ED9FEC9E5015E4FBFA0BBB0059
:0F03EA00010ABA02F8BBCBF50DBD00010C80E48F
:0103F90022E1
:0D03FA00C286C2857F057E00120407D285F1
:10040700E4FDFCC3ED9FEC9E5008000DBD00010C00
:0204170080F172
:0104190022C0
:10045500C287D286D2857F017E00120407E58033EC
:060465009200C285A20016
:01046B00226E
:10046C00AB0712045540FBAF038FA0C2871203FAEF
:05047C00C28502040727
:06043A003EF583E493FF90
:10044000AB0712045540FBAF038FA0D2871203FA0B
:05045000C28502040753
:10033E00E4FA7F3812046C7F0C12046C7F061204F0
:10034E006C7F0112046C7F647E001203DA7F8012D0
:10035E00046CE4FAEAFF3395E0FE74812FF58274A3
:10036E000412043A0AEAB40BEB7FC012046CE4FAEE
:10037E00EAFF3395E0FE748D2FF582740412043A71
:05038E000AEAB408EBCF
:010393002247
:0C04CC00AA077FC912046CAF02020440B2
:0403B50041000A00F9
:10041A00E4FDFCC3ED9FEC9E5015E4FBFA0BBB0018
:0F042A00010ABA02F8BBCBF50DBD00010C80E44E
:0104390022A0
:1004A800AD071FED600BE4FEEEC3944450F20E80DE
:0104B800F74C
:0104B9002220
:07051000D2A8D288D2AF226D
:0300030002000EEA
:10000E00C0E0C083C082C0D075D000C002C003C0A3
:07001E0004C005C006C00785
:10002500E4FCC2A87F0F1204A830B205D2A80200D2
:10003500FA9000097428F020B2077F011204A88005
:10004500F6E4FBE4FA30B2077F011204A880F6203B
:10005500B2077F011204A880F630B2117F011204A5
:10006500A80CECC3941E40F1D2A80200FA740B2B25
:10007500F582E43400F583E0C313F0ECC394084043
:100085000E740B2BF582E43400F583E04480F07C9C
:10009500000AEAB408AF0BEBB404A890000EE0F434
:1000A500FF90000DE0FE6F6004D2A88048EE24EBBF
:1000B500601724D5602B24FD601F14601424FE7086
:1000C500289000067441F080249000067442F08068
:1000D5001C9000067443F080149000067444F08070
:1000E5000C9000067449F08004D2A8800890000A9C
:0500F5007401F0D2A827
:1000FA00D007D006D005D004D003D002D0D0D08209
:05010A00D083D0E032BB
:10010F00900008E0FFD3648094804018EF3395E0AF
:10011F00FEC3900004E09F900003E09E5033D29006
:10012F00C2918031900008E0FFC364809480502119
:10013F00EF3395E0FE7CFF7DFF1204BAC3900004FD
:10014F00E09F900003E09E5006C290D291800680FF
:10015F0000C290C291900007E0FFD364809480406A
:10016F0017EF3395E0FEC3900004E09F900003E08B
:10017F009E5031D296C29722900007E0FFC3648051
:10018F0094805020EF3395E0FE7CFF7DFF1204BA80
:10019F00C3900004E09F900003E09E5005C296D2EA
:0901AF0097228000C296C297223B
:0B04F0009000087428F0900007F02234
:0B04FB0090000874D8F0900007F02279
:0C04D800E4900008F09000077428F02267
:0C04E4009000087428F0E4900007F0225B
:0A050600E4900008F0900007F022D6
:030000000201B842
:0C01B800787FE4F6D8FD7581200201FF7D
:1004BA00EF8DF0A4A8F0CF8CF0A428CE8DF0A42E56
:0204CA00FE2210
:1001C400020244E493A3F8E493A34003F68001F20B
:1001D40008DFF48029E493A3F85407240CC8C3333C
:1001E400C4540F4420C8834004F456800146F6DF0B
:1001F400E4800B0102040810204080900394E47E04
:10020400019360BCA3FF543F30E509541FFEE493FF
:10021400A360010ECF54C025E060A840B8E493A3C6
:10022400FAE493A3F8E493A3C8C582C8CAC583CAF1
:10023400F0A3C8C582C8CAC583CADFE9DEE780BEA9
:0103B9000043
:00000001FF
