:10039300420003000041000A2841000928410005EA
:1003A300004100020041000000420006000041003D
:0603B300010041000B00F7
:10040100E4FDFCC3ED9FEC9E5015E4FBFA0BBB0031
:0F041100010ABA02F8BBCBF50DBD00010C80E467
:0104200022B9
:1004BD00438901758CFC758AE0D2A9D28CD2AF220A
:1003390090FFFFD292D2932092107F057E00120483
:10034900012092039000013092FD2093107F057ED9
:10035900001204012093039000023093FDAE83AF95
:010369008211
:01036A002270
:1001E000120507D29412029D1204BD120339EF6466
:1001F000014E700490000BF0EF64024E7005900009
:100200000B04F090000BE0B4010512024480099049
:1002100000087449F0120507900005E0C3940540FA
:10022000CAE4F0900000E004F0E0942840BDE4F05F
:10023000A3E06006C294E4F080B1D294900001740F
:0402400001F080A7A2
:03000B000200B739
:1000B700C0E0C0F0C083C082C0D075D000C000C00F
:1000C70001C002C003C004C005C006C007758CFC90
:1000D700758AE0900002E004F0E0C39405402FE445
:1000E700F0900005E004F0900007E004F07006903F
:1000F7000006E004F0C3900007E094E8900006E0F3
:100107009403400AE4F0A3F0A3E0FF1204CD9000AB
:1001170004E004F07006900003E004F0C3900004CC
:10012700E09432900003E094004004E4F0A3F0125E
:10013700000ED007D006D005D004D003D002D001DE
:0D014700D000D0D0D082D083D0F0D0E032F4
:1004A80048616E74656368204D435500436F6D6DF8
:0504B800616E643A00D2
:10042100E4FDFCC3ED9FEC9E5015E4FBFA0BBB0011
:0F043100010ABA02F8BBCBF50DBD00010C80E447
:010440002299
:0D044100C286C2857F057E0012044ED28562
:10044E00E4FDFCC3ED9FEC9E5008000DBD00010CB9
:02045E0080F12B
:010460002279
:10047C00C287D286D2857F017E0012044EE580337E
:06048C009201C285A201ED
:010492002247
:10049300AB0712047C40FBAF038FA0C28712044159
:0504A300C28502044EB9
:060461003EF583E493FF69
:10046700AB0712047C40FBAF038FA0D28712044175
:05047700C28502044EE5
:10029D00E4FA7F381204937F0C1204937F06120444
:1002AD00937F011204937F647E001204217F8012DC
:1002BD000493E4FAEAFF3395E0FE74A82FF58274F7
:1002CD00041204610AEAB40BEB7FC0120493E4FA42
:1002DD00EAFF3395E0FE74B42FF5827404120461C5
:0502ED000AEAB408EB71
:0102F20022E9
:0C04CD00AA077FC9120493AF0202046763
:10000E0090000AE0FFD3648094804018EF3395E0AF
:10001E00FEC3900004E09F900003E09E5033D29008
:10002E00C291803190000AE0FFC364809480502119
:10003E00EF3395E0FE7CFF7DFF12036BC39000044F
:10004E00E09F900003E09E5006C290D29180068001
:10005E0000C290C291900009E0FFD364809480406A
:10006E0017EF3395E0FEC3900004E09F900003E08D
:10007E009E5031D296C29722900009E0FFC3648051
:10008E0094805020EF3395E0FE7CFF7DFF12036BD2
:10009E00C3900004E09F900003E09E5005C296D2EC
:0900AE0097228000C296C297223D
:0B04F10090000A7428F0900009F0222F
:0B04FC0090000A74D8F0900009F02274
:0C04D900E490000AF09000097428F02262
:0C04E50090000A7428F0E4900009F02256
:0A050700E490000AF0900009F022D1
:0403BA007F017E0041
:1003BE00E4FDFCC3ED9FEC9E5015E4FBFA0BBB0075
:0F03CE00010ABA02F8BBCBF50DBD00010C80E4AB
:0103DD0022FD
:1002F300E490000EF0A3F0208016790219E960085B
:100303002080051203BA80F4E9700590000E04F012
:10031300208417790219E960082084051203BA8042
:10032300F4E9700690000F7402F090000FE0FF9064
:05033300000EE02FFFA9
:0103380022A2
:1003DE0090000CEEF0A3EFF090000C74FFF5F0120D
:1003EE00037D45F0600C1203BA1202F3EF60E912BE
:0303FE00050722CE
:100244001202F3EF604924FE601614602824027041
:10025400479000087444F01204FC7FF47E0180226D
:100264009000087443F01204FC7FF47E011203BE74
:100274001204D980139000087444F01204FC7FE83F
:100284007E031203BE1204E57FF47E010203DE90B6
:0802940000087441F01204F1AE
:01029C00223F
:03000000020154A6
:0C015400787FE4F6D8FD75812002019B45
:10036B00EF8DF0A4A8F0CF8CF0A428CE8DF0A42EA6
:02037B00FE2260
:10037D00A3F8E0C5F025F0F0E58215827002158333
:06038D00E0C838F0E82290
:100160000201E0E493A3F8E493A34003F68001F2D4
:1001700008DFF48029E493A3F85407240CC8C333A0
:10018000C4540F4420C8834004F456800146F6DF6F
:10019000E4800B0102040810204080900393E47E69
:1001A000019360BCA3FF543F30E509541FFEE49364
:1001B000A360010ECF54C025E060A840B8E493A32B
:1001C000FAE493A3F8E493A3C8C582C8CAC583CA56
:1001D000F0A3C8C582C8CAC583CADFE9DEE780BE0E
:0103B9000043
:00000001FF
