:1003EF004200030000410008284100072841000592
:1003FF000041000200410000004100010041000ADD
:05040F0000410009009E
:10041900E4FDFCC3ED9FEC9E5015E4FBFA0BBB0019
:0F042900010ABA02F8BBCBF50DBD00010C80E44F
:0104380022A1
:1004CB00759850438920758780758DE6758BE6D2BC
:0604DB008ED2ACD2AF226C
:1004F600D2B9438901758CFC758AE0D2A9D28CD217
:02050600AF2222
:1001D0001205661203691204F61205701204CB9020
:1001E0000005E0C3940540F7E4F0900000E004F05F
:1001F000E094284014E4F0A3E06006C294E4F080A8
:1002000008D2949000017401F090000AE014F0E02C
:10021000700504F012056690000BE0640160079021
:100220000009E0B401B9E490000BF0900009F090EF
:100230000006E024BE601314601514601724FB60F0
:100240001824087017120550801212055B800D12D9
:10025000053880081205448003120566900006E008
:07026000FF12052C0201DF73
:03000B000202F3FB
:1002F300C0E0C0F0C083C082C0D075D000C000C0D1
:1003030001C002C003C004C005C006C007758CFC51
:10031300758AE0900002E004F0E0C394054008E42D
:10032300F0900005E004F0900004E004F070069003
:100333000003E004F0C3900004E09432900003E073
:1003430094004004E4F0A3F0120127D007D006D0B4
:1003530005D004D003D002D001D000D0D0D082D0B9
:0603630083D0F0D0E0326F
:030023000203BF16
:0D03BF00C0E0C083C082C0D075D000C00770
:1003CC00309815AF999000097401F0900006EFF089
:0803DC00C29890000A7428F099
:0B03E400D007D0D0D082D083D0E03210
:1004E10048616E74656368204D435500436F6D6DBF
:0504F100616E643A0099
:10043900E4FDFCC3ED9FEC9E5015E4FBFA0BBB00F9
:0F044900010ABA02F8BBCBF50DBD00010C80E42F
:010458002281
:0D045900C286C2857F057E00120466D28532
:10046600E4FDFCC3ED9FEC9E5008000DBD00010CA1
:0204760080F113
:010478002261
:1004B400C287D286D2857F017E00120466E580332E
:0604C4009200C285A200B7
:0104CA00220F
:10000E00AB071204B440FBAF038FA0C28712045992
:05001E00C2850204662A
:060499003EF583E493FF31
:10049F00AB071204B440FBAF038FA0D287120459ED
:0504AF00C28502046695
:10036900E4FA7F3812000E7F0C12000E7F0612008D
:100379000E7F0112000E7F647E001204397F801205
:10038900000EE4FAEAFF3395E0FE74E12FF582747A
:10039900041204990AEAB40BEB7FC012000EE4FAC6
:1003A900EAFF3395E0FE74ED2FF582740412049987
:0503B9000AEAB408EBA4
:0103BE00221C
:0C052C00AA077FC912000EAF0202049F54
:0404140041000B0098
:10047900E4FDFCC3ED9FEC9E5015E4FBFA0BBB00B9
:0F048900010ABA02F8BBCBF50DBD00010C80E4EF
:010498002241
:10050800AD071FED600BE4FEEEC3944450F20E807D
:01051800F7EB
:0105190022BF
:07057000D2A8D288D2AF220D
:03000300020026D2
:10002600C0E0C083C082C0D075D000C002C003C08B
:0700360004C005C006C0076D
:10003D00E4FCC2A87F0F12050830B205D2A8020158
:10004D001290000A7428F020B2077F011205088073
:10005D00F6E4FBE4FA30B2077F0112050880F620C2
:10006D00B2077F0112050880F630B2117F0112052B
:10007D00080CECC3941E40F1D2A8020112740C2B93
:10008D00F582E43400F583E0C313F0ECC39408402B
:10009D000E740C2BF582E43400F583E04480F07C83
:1000AD00000AEAB408AF0BEBB404A890000FE0F41B
:1000BD00FF90000EE0FE6F6004D2A88048EE24EBA6
:1000CD00601724D5602B24FD601F14601424FE706E
:1000DD00289000067441F080249000067442F08050
:1000ED001C9000067443F080149000067444F08058
:1000FD000C9000067449F08004D2A8800890000B83
:05010D007401F0D2A80E
:10011200D007D006D005D004D003D002D0D0D082F0
:05012200D083D0E032A3
:10012700900008E0FFD3648094804018EF3395E097
:10013700FEC3900004E09F900003E09E5033D290EE
:10014700C2918031900008E0FFC364809480502101
:10015700EF3395E0FE7CFF7DFF12051AC390000484
:10016700E09F900003E09E5006C290D291800680E7
:1001770000C290C291900007E0FFD3648094804052
:1001870017EF3395E0FEC3900004E09F900003E073
:100197009E5031D296C29722900007E0FFC3648039
:1001A70094805020EF3395E0FE7CFF7DFF12051A07
:1001B700C3900004E09F900003E09E5005C296D2D2
:0901C70097228000C296C2972223
:0B0550009000087428F0900007F022D3
:0B055B0090000874D8F0900007F02218
:0C053800E4900008F09000077428F02206
:0C0544009000087428F0E4900007F022FA
:0A056600E4900008F0900007F02276
:0300000002026792
:0C026700787FE4F6D8FD7581200202AE1D
:10051A00EF8DF0A4A8F0CF8CF0A428CE8DF0A42EF5
:02052A00FE22AF
:100273000201D0E493A3F8E493A34003F68001F2D0
:1002830008DFF48029E493A3F85407240CC8C3338C
:10029300C4540F4420C8834004F456800146F6DF5B
:1002A300E4800B01020408102040809003EFE47EF9
:1002B300019360BCA3FF543F30E509541FFEE49350
:1002C300A360010ECF54C025E060A840B8E493A317
:1002D300FAE493A3F8E493A3C8C582C8CAC583CA42
:1002E300F0A3C8C582C8CAC583CADFE9DEE780BEFA
:0104180000E3
:00000001FF
