:100656004200180000410023194100221941001AE6
:1006660000410017004100150042001B0000410038
:0D067600160044001D00000000410025009A
:0806010090000FEEF0A3EFF0F2
:1006090090001DE0FCA3E0FDA3E0FEA3E0FF900045
:10061900111200BF900011E0F8A3E0F9A3E0FAA3DA
:10062900E0FB90001DE0FCA3E0FDA3E0FEA3E0C316
:100639009BFBEE9AFAED99F9EC98F890000FE0FE21
:0C064900A3E0FFE4FCFDC31200AE40C8BB
:010655002282
:10001600438901758CFE758A70D2A9D28CD2AF2223
:10049100900006EBF0A3EAF0A3E9F012087F7F6475
:1004A1007E00120601120511900026E0F9A3E0FF7B
:1004B10090000CE0FBA3E0FAA3E0C98FF01200402A
:1004C1001208377FC87E001206011205119000261E
:1004D100E0F9A3E0FF900009E0FBA3E0FAA3E0C983
:1004E1008FF012004012082A1208447FC87E0012C1
:1004F1000601120511900026E0F9A3E0FF90000625
:10050100E0FBA3E0FAA3E0C98FF012004002082A41
:10019900C3900027E0940A900026E09400400302EF
:0201A900027CD6
:1001AB00C3A3E09408900026E09400500712087453
:1001BB007F2C80509000097401F0A37400F0A3749D
:1001CB0002F0A37401F0A37400F0A37404F07B019C
:1001DB007A007900120491D3900005E094329000DC
:1001EB0004E09400400A1208697FF47E01020601C4
:1001FB00C3900005E09408900004E09400500912AD
:10020B0008747FF47E018063900000E0FEA3E0FFA2
:10021B00900004E0FCA3E0FDC39FEC9E4010900017
:10022B0002E0FEA3E0FFED9FEC9E400280439000B6
:10023B0002E0FEA3E0FFD3900001E09F900000E0FE
:10024B009E500912085D7FBC7E02801F900000E06B
:10025B00FEA3E0FFC3900003E09F900002E09E40EE
:10026B00030201BF1208517FBC7E0212060102017C
:01027B00BFC3
:04027C0012086922D9
:1006EC0074FF900000F0A3F0D292D2932092157F69
:1006FC00057E00120601209208900000E4F0A3048D
:10070C00F03092FD2093167F057E00120601209397
:10071C0009900000E4F0A37402F03093FD90000007
:05072C00E0FEA3E0FF68
:0107310022A5
:1007760012087FD2941208141200161206ECEF64C7
:10078600014E7004900025F0EF64024E7005900053
:100796002504F090001AE0C3940540DFE4F09000D1
:1007A60025E0B401081207B812019980CE12087F1D
:0207B60080C9F8
:03000B000202806E
:10028000C0E0C0F0C083C082C0D075D000C000C044
:1002900001C002C003C004C005C006C007758CFEC3
:1002A000758A70900017E004F0E0C3940A402A9029
:1002B000001DE0FCA3E0FDA3E0FEA3E02401FFE4B9
:1002C0003EFEE43DFDE43CFC90001D1200BF9000AA
:1002D00017E4F090001AE004F0900019E004F070C8
:1002E00006900018E004F0C3900019E094329000EA
:1002F00018E094004023E4F0A3F0900015E004F02F
:10030000E094284014E4F0A3E06006C294E4F08096
:1003100008D2949000167401F012035C90002EE055
:1003200004F090002FE0FF90002EE0FED39F5004D9
:10033000C2B58002D2B5EEC394C8400590002EE449
:10034000F0D007D006D005D004D003D002D001D021
:0C03500000D0D0D082D083D0F0D0E032BA
:10035C00900023E0FFD3648094804018EF3395E045
:10036C00FEC3900019E09F900018E09E5033D2908D
:10037C00C2918031900023E0FFC3648094805021AF
:10038C00EF3395E0FE7CFF7DFF12002EC390001929
:10039C00E09F900018E09E5006C290D2918006809B
:1003AC0000C290C291900022E0FFD3648094804000
:1003BC0017EF3395E0FEC3900019E09F900018E012
:1003CC009E5031D296C29722900022E0FFC36480E7
:1003DC0094805020EF3395E0FE7CFF7DFF12002EC1
:1003EC00C3900019E09F900018E09E5005C296D271
:0903FC0097228000C296C29722EC
:0B0869009000237419F0900022F02290
:0B08740090002374D3F0900022F022CB
:0C085100E4900023F09000227419F022C3
:0C085D009000237419F0E4900022F022B7
:0A087F00E4900023F0900022F02224
:1006830041002A0042002C000042002600144100D1
:070693002B004200280000CB
:10081400C2B4E4F5CBF5CDF5CAF5CCC2CAD2ADC2AB
:06082400AAD28AD2BA221A
:1005900090002AE06401702ED2B404F0E4F5CDF5A9
:1005A000CCD2CAE5CCC3942A40F990002A7402F058
:1005B000C2B4E4F5CDF5CCC2CA30B3FDD2AAD2CADA
:1005C00090002A7403F090002AE0B4042A90002CD2
:1005D000E0FEA3E0FFE4FCFD7B22FAF9F812005FE5
:1005E000E47B407A1FF9F8120732900026EEF0A360
:1005F000EFF0E490002AF090002AE0B40502E4F065
:0106000022D7
:0700030090002A7401F022B5
:1007B800900029E004F07006900028E004F0C3904F
:1007C8000029E0940F900028E094004007E4F0A38B
:0507D800F012051122E2
:10051100D2B490002A7401F0E4F5CDF5CCD2CAE54D
:10052100CCC3942A40F990002A7402F0C2B4E4F5D5
:10053100CDF5CCC2CA30B3FDD2CA30B31290002A75
:10054100E0B405F6E4F0900026F0A3F0D2AF22AFBC
:10055100CDEFFEADCC7C00E42DFFEC3E90002CF005
:10056100A3EFF0C2CA90002CE0FEA3E0FFE4FD7B04
:1005710022FAF9F812005FE47B407A1FF9F81207BA
:0F05810032900026EEF0A3EFF0E490002AF02273
:030013000206A33F
:1006A300C0E0C083C082C0D075D000C004C005C004
:1006B30006C00790002AE0B4031EAFCDEFFEADCC19
:1006C3007C00E42DFFEC3E90002CF0A3EFF0C2AAD7
:1006D300C2CA90002A7404F0D007D006D005D00413
:0906E300D0D0D082D083D0E032E7
:03002B000207FDCC
:1007FD00C0E0C083C082C2CFC2AA90002A7405F0A7
:07080D00D082D083D0E0325D
:08069A0041002E0041002F0F6A
:1007DD00E4FDFCC3ED9FEC9E5015E4FBFA0BBB0052
:0F07ED00010ABA02F8BBCBF50DBD00010C80E488
:0107FC0022DA
:0D082A0090002F740FF07F2C7E010207DD7F
:0D08370090002F7408F07F2C7E010207DD79
:0D08440090002F7416F07F2C7E010207DD5E
:03000000020405F2
:0C040500787FE4F6D8FD75810702044CF6
:10002E00EF8DF0A4A8F0CF8CF0A428CE8DF0A42EE6
:02003E00FE22A0
:10004000BB010A89828A83F0E5F0A3F0225006F70B
:0F00500009A7F01922BBFE06F3E5F009F3192208
:10005F00E88FF0A4CC8BF0A42CFCE98EF0A42CFC40
:10006F008AF0EDA42CFCEA8EF0A4CDA8F08BF0A4BE
:10007F002DCC3825F0FDE98FF0A42CCD35F0FCEB1D
:10008F008EF0A4FEA9F0EB8FF0A4CFC5F02ECD39E2
:0F009F00FEE43CFCEAA42DCE35F0FDE43CFC224F
:10073200C2D5E830E70FB2D5E4C39BFBE49AFAE4F2
:1007420099F9E498F8EC30E717B2D512076812016C
:1007520007E4C39BFBE49AFAE499F9E498F880036E
:1007620012010730D50DE4C39FFFE49EFEE49DFD18
:04077200E49CFC22E5
:1000AE00EB9FF5F0EA9E42F0E99D42F0E89C45F0A8
:0100BE00221F
:0C00BF00ECF0A3EDF0A3EEF0A3EFF022B4
:10041100020776E493A3F8E493A34003F68001F284
:1004210008DFF48029E493A3F85407240CC8C333EC
:10043100C4540F4420C8834004F456800146F6DFBB
:10044100E4800B0102040810204080900656E47EEF
:10045100019360BCA3FF543F30E509541FFEE493B0
:10046100A360010ECF54C025E060A840B8E493A377
:10047100FAE493A3F8E493A3C8C582C8CAC583CAA2
:10048100F0A3C8C582C8CAC583CADFE9DEE780BE5A
:0106A2000057
:1000CB0075F008758200EF2FFFEE33FECD33CDCCEC
:1000DB0033CCC58233C5829BED9AEC99E58298406F
:1000EB000CF582EE9BFEED9AFDEC99FC0FD5F0D64C
:1000FB00E4CEFBE4CDFAE4CCF9A88222B800C1B976
:10010B000059BA002DEC8BF084CFCECDFCE5F0CBB3
:10011B00F97818EF2FFFEE33FEED33FDEC33FCEBEC
:10012B0033FB10D703994004EB99FB0FD8E5E4F9A7
:10013B00FA227818EF2FFFEE33FEED33FDEC33FC94
:10014B00C933C910D7059BE99A4007EC9BFCE99A88
:10015B00F90FD8E0E4C9FAE4CCFB2275F010EF2FCD
:10016B00FFEE33FEED33FDCC33CCC833C810D707CD
:10017B009BEC9AE899400AED9BFDEC9AFCE899F808
:0E018B000FD5F0DAE4CDFBE4CCFAE4C8F9229B
:00000001FF
