:10030B00420003000041000A284100092841000572
:10031B0000410002004100000042000600004100C5
:06032B00010041000C007E
:10033200E4FDFCC3ED9FEC9E5015E4FBFA0BBB0001
:0F034200010ABA02F8BBCBF50DBD00010C80E437
:010351002289
:10040000438901758CFC758AE0D2A9D28CD2AF22C7
:1002B00090FFFFD292D2932092107F057E0012030E
:1002C000322092039000013092FD2093107F057E32
:1002D000001203322093039000023093FDAE83AFEF
:0102E000829B
:0102E10022FA
:1002E2003083083081053082028017308207900007
:1002F200087444F0223081079000087443F02230E1
:0903020083069000087441F0220A
:1000B70012044AD29412025A1204001202B0EF64D8
:1000C700014E700490000CF0EF64024E7005900032
:1000D7000C04F0900005E0C3940540DFE4F09000C5
:1000E70000E004F0E094284014E4F0A3E06006C2C6
:1000F70094E4F08008D2949000017401F090000C11
:10010700E0B401051202E280069000087449F090FD
:100117000008E0FF90000BE06F60A0EFF024BE60E6
:100127001314601514601724FB6018240870171245
:100137000434801212043F800D12041C800812043C
:1001470028800312044A900008E0FF1204100200FE
:01015700C2E5
:03000B000201E40B
:1001E400C0E0C0F0C083C082C0D075D000C000C0E1
:1001F40001C002C003C004C005C006C007758CFC62
:10020400758AE0900002E004F0E0C394054008E43D
:10021400F0900005E004F0900004E004F070069013
:100224000003E004F0C3900004E09432900003E083
:1002340094004004E4F0A3F012000ED007D006D0DE
:1002440005D004D003D002D001D000D0D0D082D0C9
:0602540083D0F0D0E0327F
:1003D90048616E74656368204D435500436F6D6DC8
:0503E900616E643A00A2
:10035200E4FDFCC3ED9FEC9E5015E4FBFA0BBB00E1
:0F036200010ABA02F8BBCBF50DBD00010C80E417
:010371002269
:0D037200C286C2857F057E0012037FD28502
:10037F00E4FDFCC3ED9FEC9E5008000DBD00010C89
:02038F0080F1FB
:010391002249
:1003AD00C287D286D2857F017E0012037FE580331E
:0603BD009200C285A200BF
:0103C3002217
:1003C400AB071203AD40FBAF038FA0C287120372C9
:0503D400C28502037F59
:060392003EF583E493FF39
:10039800AB071203AD40FBAF038FA0D287120372E5
:0503A800C28502037F85
:10025A00E4FA7F381203C47F0C1203C47F06120328
:10026A00C47F011203C47F647E001203527F80128E
:10027A0003C4E4FAEAFF3395E0FE74D92FF58274D9
:10028A00031203920AEAB40BEB7FC01203C4E4FA26
:10029A00EAFF3395E0FE74E52FF5827403120392A8
:0502AA000AEAB408EBB4
:0102AF00222C
:0C041000AA077FC91203C4AF02020398C0
:10000E0090000AE0FFD3648094804018EF3395E0AF
:10001E00FEC3900004E09F900003E09E5033D29008
:10002E00C291803190000AE0FFC364809480502119
:10003E00EF3395E0FE7CFF7DFF1203EEC3900004CC
:10004E00E09F900003E09E5006C290D29180068001
:10005E0000C290C291900009E0FFD364809480406A
:10006E0017EF3395E0FEC3900004E09F900003E08D
:10007E009E5031D296C29722900009E0FFC3648051
:10008E0094805020EF3395E0FE7CFF7DFF1203EE4F
:10009E00C3900004E09F900003E09E5005C296D2EC
:0900AE0097228000C296C297223D
:0B04340090000A7428F0900009F022EC
:0B043F0090000A74D8F0900009F02231
:0C041C00E490000AF09000097428F0221F
:0C04280090000A7428F0E4900009F02213
:0A044A00E490000AF0900009F0228F
:03000000020158A2
:0C015800787FE4F6D8FD75812002019F3D
:1003EE00EF8DF0A4A8F0CF8CF0A428CE8DF0A42E23
:0203FE00FE22DD
:100164000200B7E493A3F8E493A34003F68001F2FA
:1001740008DFF48029E493A3F85407240CC8C3339C
:10018400C4540F4420C8834004F456800146F6DF6B
:10019400E4800B010204081020408090030BE47EED
:1001A400019360BCA3FF543F30E509541FFEE49360
:1001B400A360010ECF54C025E060A840B8E493A327
:1001C400FAE493A3F8E493A3C8C582C8CAC583CA52
:1001D400F0A3C8C582C8CAC583CADFE9DEE780BE0A
:0103310000CB
:00000001FF
