:100A5200420031000041003828410037284100336C
:100A6200004100300041002E0042003400004100ED
:060A72002F0041003A00D4
:100B0E00E4FDFCC3ED9FEC9E5015E4FBFA0BBB001D
:0F0B1E00010ABA02F8BBCBF50DBD00010C80E453
:010B2D0022A5
:100BE600438901758CFC758AE0D2A9D28CD2AF22DA
:10091300C390003CE0940F90003BE09400500CA384
:10092300E0940A90003BE09400500FD390003CE029
:10093300941990003BE0940040079000367449F00E
:1009430022D390003CE0940A90003BE094005006D0
:100953009000367442F0C390003CE0940F90003B4B
:0C096300E0940040069000367441F02241
:100A900090FFFFD292D2932092107F057E00120B1E
:100AA0000E2092039000013092FD2093107F057E6E
:100AB00000120B0E2093039000023093FDAE83AF23
:010AC00082B3
:010AC1002212
:10056000120C30D29412096F120BE6120BD0120A41
:1005700090EF64014E700490003AF0EF64024E7008
:100580000590003A04F0900033E0C3940540DFE4A6
:10059000F090002EE004F0E09428401FE4F0A3E087
:1005A0006011C294E4F090003BE0FEA3E0FF12086B
:1005B000AD8008D29490002F7401F090003AE0B41E
:1005C0000108120AE912091380069000367449F0F6
:1005D000900036E0FF900039E06F6092EFF024BEAB
:1005E000601314601514601724FB6018240870173A
:1005F000120C1A8012120C25800D120C02800812A7
:100600000C0E8003120C30900036E0FF120BF60245
:02061000056E75
:03000B000207C623
:1007C600C0E0C0F0C083C082C0D075D000C000C0F9
:1007D60001C002C003C004C005C006C007758CFC7A
:1007E600758AE0900030E004F0E0C394054008E428
:1007F600F0900033E004F0900032E004F0700690D0
:100806000031E004F0C3900032E09432900031E011
:1008160094004004E4F0A3F0120612D007D006D0EC
:1008260005D004D003D002D001D000D0D0D082D0E1
:0608360083D0F0D0E03297
:100B8900253033640044697374616E63653A2000EB
:090B9900436F6D6D616E643A005A
:100B2E00E4FDFCC3ED9FEC9E5015E4FBFA0BBB00FD
:0F0B3E00010ABA02F8BBCBF50DBD00010C80E433
:010B4D002285
:0D0B4E00C286C2857F057E00120B5BD2853A
:100B5B00E4FDFCC3ED9FEC9E5008000DBD00010CA5
:020B6B0080F117
:010B6D002265
:100BA200C287D286D2857F017E00120B5BE580333D
:060BB2009200C285A200C2
:010BB800221A
:10001600AB07120BA240FBAF038FA0C287120B4E99
:05002600C285020B5B26
:060B6E003EF583E493FF55
:100B7400AB07120BA240FBAF038FA0D287120B4E20
:050B8400C285020B5BBD
:10096F00E4FA7F381200167F0C1200167F06120071
:10097F00167F011200167F647E00120B2E7F8012ED
:10098F000016E4FAEAFF3395E0FE748E2FF58274B9
:10099F000B120B6E0AEAB40AEB7FC0120016E4FAD0
:1009AF00EAFF3395E0FE74992FF582740B120B6EEC
:0509BF000AEAB408EB98
:0109C4002210
:0C0BF600AA077FC9120016AF02020B74A0
:1008AD00E4900004F0A3F0900003F090000974FFB1
:1008BD00F0A3740BF0A37489F0A3EEF0A3EFF07B1B
:1008CD00017A0079001200937F8A120016E49000DD
:1008DD0004F0A3F0900004E0FEA3E0FFC39403EE48
:1008ED0064809480501F74002FF58274003EF58350
:1008FD00E0FF120B74900005E004F070D790000437
:05090D00E004F080CFC2
:0109120022C2
:10061200900038E0FFD3648094804018EF3395E077
:10062200FEC3900032E09F900031E09E5033D290A2
:10063200C2918031900038E0FFC3648094805021E1
:10064200EF3395E0FE7CFF7DFF120393C3900032EF
:10065200E09F900031E09E5006C290D291800680C9
:1006620000C290C291900037E0FFD3648094804032
:1006720017EF3395E0FEC3900032E09F900031E027
:100682009E5031D296C29722900037E0FFC3648019
:1006920094805020EF3395E0FE7CFF7DFF120393A0
:1006A200C3900032E09F900031E09E5005C296D286
:0906B20097228000C296C2972233
:0B0C1A009000387428F0900037F022A2
:0B0C250090003874D8F0900037F022E7
:0C0C0200E4900038F09000377428F022D5
:0C0C0E009000387428F0E4900037F022C9
:0A0C3000E4900038F0900037F02245
:100A780041003F00420041000042003B00004100AD
:070A8800400042003D0000A8
:100BD000C2B4E4F5CBF5CDF5CAF5CCC2CAD2ADC2EC
:060BE000AAD28AD2BA225B
:10083C0090003FE06401702ED2B404F0E4F5CDF5E5
:10084C00CCD2CAE5CCC3942A40F990003F7402F094
:10085C00C2B4E4F5CDF5CCC2CA30B3FDD2AAD2CA2B
:10086C0090003F7403F090003FE0B4042A900041E4
:10087C00E0FEA3E0FFE4FCFD7B22FAF9F81203A5ED
:10088C00E47B407A1FF9F8120A0E90003BEEF0A3BD
:10089C00EFF0E490003FF090003FE0B40502E4F08C
:0108AC002229
:0700030090003F7401F022A0
:100AE90090003EE004F0700690003DE004F0C390F1
:100AF900003EE0940F90003DE094004007E4F0A32D
:050B0900F01207472275
:10074700D2B490003F7401F0E4F5CDF5CCD2CAE500
:10075700CCC3942A40F990003F7402F0C2B4E4F588
:10076700CDF5CCC2CA30B3FDD2CA30B31290003F28
:10077700E0B405F6E4F090003BF0A3F0D2AF22AF6F
:10078700CDEFFEADCC7C00E42DFFEC3E900041F0B8
:10079700A3EFF0C2CA900041E0FEA3E0FFE4FD7BB7
:1007A70022FAF9F81203A5E47B407A1FF9F8120A36
:0F07B7000E90003BEEF0A3EFF0E490003FF02235
:030013000209C51A
:1009C500C0E0C083C082C0D075D000C004C005C0DF
:1009D50006C00790003FE0B4031EAFCDEFFEADCCDF
:1009E5007C00E42DFFEC3E900041F0A3EFF0C2AA9D
:1009F500C2CA90003F7404F0D007D006D005D004D9
:090A0500D0D0D082D083D0E032C1
:03002B00020BB90C
:100BB900C0E0C083C082C2CFC2AA90003F7405F0D2
:070BC900D082D083D0E0329E
:030000000206BB3A
:0C06BB00787FE4F6D8FD7581210207026B
:10039300EF8DF0A4A8F0CF8CF0A428CE8DF0A42E7E
:0203A300FE2238
:1003A500E88FF0A4CC8BF0A42CFCE98EF0A42CFCF7
:1003B5008AF0EDA42CFCEA8EF0A4CDA8F08BF0A475
:1003C5002DCC3825F0FDE98FF0A42CCD35F0FCEBD4
:1003D5008EF0A4FEA9F0EB8FF0A4CFC5F02ECD3999
:0F03E500FEE43CFCEAA42DCE35F0FDE43CFC2206
:100A0E00C2D5E830E70FB2D5E4C39BFBE49AFAE413
:100A1E0099F9E498F8EC30E717B2D5120A441204AB
:100A2E0088E4C39BFBE49AFAE499F9E498F880030E
:100A3E0012048830D50DE4C39FFFE49EFEE49DFDB5
:040A4E00E49CFC2206
:10002E00E5082409F582E43400F583E00508229002
:10003E000006300703900009E475F00112051A025C
:10004E0003F42000E97F2ED2008018EF540F249085
:10005E00D43440D4FF30040BEF24BFB41A00500345
:10006E002461FFE50960021509050CE50C70020517
:10007E000B30070E900006E475F00112051AEF0220
:10008E00043A020AC27403D2078003E4C207F508D9
:10009E00900006120531E4F509F50BF50CE5096043
:1000AE00077F2012007180F5750AFFC201C200C2DF
:1000BE0002C203C205C206C20812003DFF700D3017
:1000CE0007057F00120082AF0CAE0B22B4255FC273
:1000DE00D5C20412003DFF24D0B40A00501A75F0A8
:1000EE000A780930D50508B6FF0106C6A426F62003
:1000FE00D5047002D20380D924CFB41A00EF500475
:10010E00C2E5D204020283D20180C6D20080C0D2E0
:10011E000280BCD2D580BAD20580B47F2012007185
:10012E002002077401B5090040F112002EFF1200E3
:10013E00710200ABD208D206809512002EFB12007F
:10014E002EFA12002EF94A4B700679547A037BFF71
:10015E0020022EE509602A7E008E8275830012042D
:10016E000D60060EEE650A70F0C2D5EBC0E0EAC077
:10017E00E0E9C0E0EE1202CAD0E0F9D0E0FAD0E039
:10018E00FB1203F4FF60AAEBC0E0EAC0E0E9C0E0B6
:10019E00120071D0E02401F9D0E03400FAD0E0FB77
:1001AE00E50A0460DCD50AD980877BFF7A0279C61E
:1001BE00D202809C791080027908C206C20880089B
:1001CE00D2D5790A8004790AC2D5E50A047002F5FF
:1001DE000AE4FAFDFEFF12002EFC7B08200113122A
:1001EE00002EFD7B1030000A12002EFE12002EFF94
:1001FE007B20EC3382D592D55013C3E43000069F9A
:10020E00FFE49EFEE42001039DFDE49CFCE4CBF89C
:10021E00C201EC700CCFCECDCCE824F8F870F38090
:10022E0017C3EF33FFEE33FEED33FDEC33FCEB3350
:10023E00FB994002FB0FD8E9EB300105F8D0E0C482
:10024E0048B201C0E00AEC4D4E4F78207B0070C2E0
:10025E00EAB50A0040BCC0E01202CCD0F0D0E020DB
:10026E000104C4C0E0C4B201C0F012005AD0F0D5EF
:10027E00F0EB0200AB12053A01485301C2580119C6
:10028E004C01154201C64F01CE4401CE49012E4309
:08029E0001D45501B84601B876
:1002A6004501B847037450011D2D01212E01442B31
:1002B600012523014220035D2A00DD480000013CA0
:1002C6003F3F3F00790AA2D5200314300509B91033
:1002D600020404B9080104A2D52006025001042034
:1002E60002689202B509005034C0E07F203003193D
:1002F6007F30A20272067205500F120323C202C299
:1003060006C205C2087F30800F300503E9C0E0123F
:100316000071300503D0E0F9D0E0B509CC300517FF
:100326007F30B9100C1200717F583004077F788037
:1003360003B908031200713002057F2D0200717F98
:10034600202008F87F2B2006F322920280CF286E09
:10035600756C6C2900D20112002E3001F8C20178AA
:100366000930D50108F60200DD2D50434958120028
:100376002E2403B405004001E490036F931200623B
:0D038600743A120062D2037509040201C22C
:1006C700020560E493A3F8E493A34003F68001F2E4
:1006D70008DFF48029E493A3F85407240CC8C33334
:1006E700C4540F4420C8834004F456800146F6DF03
:1006F700E4800B0102040810204080900A52E47E37
:10070700019360BCA3FF543F30E509541FFEE493F7
:10071700A360010ECF54C025E060A840B8E493A3BE
:10072700FAE493A3F8E493A3C8C582C8CAC583CAE9
:10073700F0A3C8C582C8CAC583CADFE9DEE780BEA1
:010A8F000066
:1003F400BB010689828A83E0225002E722BBFE0207
:09040400E32289828A83E4932239
:10040D00BB010CE58229F582E5833AF583E02250A4
:10041D0006E92582F8E622BBFE06E92582F8E222EE
:0D042D00E58229F582E5833AF583E4932208
:10043A00BB010689828A83F0225002F722BBFE01A1
:02044A00F3229B
:10044C0075F008758200EF2FFFEE33FECD33CDCC67
:10045C0033CCC58233C5829BED9AEC99E5829840EA
:10046C000CF582EE9BFEED9AFDEC99FC0FD5F0D6C7
:10047C00E4CEFBE4CDFAE4CCF9A88222B800C1B9F1
:10048C000059BA002DEC8BF084CFCECDFCE5F0CB2F
:10049C00F97818EF2FFFEE33FEED33FDEC33FCEB68
:1004AC0033FB10D703994004EB99FB0FD8E5E4F923
:1004BC00FA227818EF2FFFEE33FEED33FDEC33FC10
:1004CC00C933C910D7059BE99A4007EC9BFCE99A04
:1004DC00F90FD8E0E4C9FAE4CCFB2275F010EF2F49
:1004EC00FFEE33FEED33FDCC33CCC833C810D70749
:1004FC009BEC9AE899400AED9BFDEC9AFCE899F884
:0E050C000FD5F0DAE4CDFBE4CCFAE4C8F92216
:10051A00F8E0FBA3A3E0F925F0F0E582158270026A
:07052A001583E0FA38F0220E
:09053100EBF0A3EAF0A3E9F022CB
:10053A00D083D082F8E4937012740193700DA3A350
:10054A0093F8740193F5828883E473740293686064
:06055A00EFA3A3A380DF64
:100AC200EFB40A07740D120ACD740A309811A8996E
:100AD200B8130CC2983098FDA899C298B811F63094
:070AE20099FDC299F599226C
:00000001FF
