:100341004200030000410008284100072841000540
:100351000041000200410000004100010041000A8B
:0503610000410009004D
:10036F00E4FDFCC3ED9FEC9E5015E4FBFA0BBB00C4
:0F037F00010ABA02F8BBCBF50DBD00010C80E4FA
:01038E00224C
:0A049C00AE078E993099FDC2992237
:10040100759850438920758780758DE6758BE6D286
:060411008ED2ACD2AF2236
:10046400438901758CFC758AE0D2A9D28CD2AF2263
:1002DF0090FFFFD292D2932092107F057E001203DF
:1002EF006F2092039000013092FD2093107F057EC6
:1002FF000012036F2093039000023093FDAE83AF83
:01030F00826B
:0103100022CA
:100026001204A6D294120401120289120464120266
:10003600DFEF64014E701190000BE004F0E0D36432
:100046008094B240037432F0EF64024E7011900057
:100056000CE004F0E0D3648094B240037432F09074
:100066000005E0C3940540C6E4F0900000E004F00B
:10007600E094284014E4F0A3E06006C294E4F08023
:1000860008D2949000017401F090000AE014F0E0A8
:10009600700504F01204A6900009E06401708FF068
:1000A600900006E024BE601314601514601724FB4C
:1000B600601824087017120453801212042C800D45
:1000C600120474800812048280031204A6900006AB
:0800D600E0FF12049002003467
:03000B00020213DB
:10021300C0E0C0F0C083C082C0D075D000C000C0B1
:1002230001C002C003C004C005C006C007758CFC32
:10023300758AE0900002E004F0E0C394054008E40E
:10024300F0900005E004F0900004E004F0700690E4
:100253000003E004F0C3900004E09432900003E054
:1002630094004004E4F0A3F01200DED007D006D0DF
:1002730005D004D003D002D001D000D0D0D082D09A
:0602830083D0F0D0E03250
:03002300020311C4
:0D031100C0E0C083C082C0D075D000C0071E
:10031E00309815AF999000097401F0900006EFF037
:08032E00C29890000A7428F047
:0B033600D007D0D0D082D083D0E032BE
:1004170048616E74656368204D435500436F6D6D89
:05042700616E643A0063
:10038F00E4FDFCC3ED9FEC9E5015E4FBFA0BBB00A4
:0F039F00010ABA02F8BBCBF50DBD00010C80E4DA
:0103AE00222C
:0D03AF00C286C2857F057E001203BCD28588
:1003BC00E4FDFCC3ED9FEC9E5008000DBD00010C4C
:0203CC0080F1BE
:0103CE00220C
:1003EA00C287D286D2857F017E001203BCE58033A4
:0603FA009200C285A20082
:0104000022D9
:10000E00AB071203EA40FBAF038FA0C2871203AF08
:05001E00C2850203BCD5
:0603CF003EF583E493FFFC
:1003D500AB071203EA40FBAF038FA0D2871203AF2E
:0503E500C2850203BC0B
:10028900E4FA7F3812000E7F0C12000E7F0612006E
:100299000E7F0112000E7F647E0012038F7F801291
:1002A900000EE4FAEAFF3395E0FE74172FF5827425
:1002B900041203CF0AEAB40BEB7FC012000EE4FA72
:1002C900EAFF3395E0FE74232FF58274041203CFFD
:0502D9000AEAB408EB85
:0102DE0022FD
:0C049000AA077FC912000EAF020203D5BC
:0803660041000B1441000C14CE
:1000DE00900008E0FFD3648094804018EF3395E0E1
:1000EE00FEC3900004E09F900003E09E5033D29038
:1000FE00C2918031900008E0FFC36480948050214B
:10010E00EF3395E0FE7CFF7DFF120441C3900004A7
:10011E00E09F900003E09E5006C290D29180068030
:10012E0000C290C291900007E0FFD364809480409B
:10013E0017EF3395E0FEC3900004E09F900003E0BC
:10014E009E5031D296C29722900007E0FFC3648082
:10015E0094805020EF3395E0FE7CFF7DFF1204412A
:10016E00C3900004E09F900003E09E5005C296D21B
:09017E0097228000C296C297226C
:1004530090000BE0900008F090000CE0900007F093
:010463002276
:10042C0090000BE0F404900008F090000CE0F40451
:05043C00900007F02212
:0E047400E4900008F090000CE0900007F022E9
:0E04820090000BE0900008F0E4900007F022DC
:0A04A600E4900008F0900007F02237
:0300000002018773
:0C018700787FE4F6D8FD7581200201CEDF
:10044100EF8DF0A4A8F0CF8CF0A428CE8DF0A42ECF
:02045100FE2289
:10019300020026E493A3F8E493A34003F68001F25C
:1001A30008DFF48029E493A3F85407240CC8C3336D
:1001B300C4540F4420C8834004F456800146F6DF3C
:1001C300E4800B0102040810204080900341E47E88
:1001D300019360BCA3FF543F30E509541FFEE49331
:1001E300A360010ECF54C025E060A840B8E493A3F8
:1001F300FAE493A3F8E493A3C8C582C8CAC583CA23
:10020300F0A3C8C582C8CAC583CADFE9DEE780BEDA
:01036E00008E
:00000001FF
