:100B0C0042003100004100382841003728410033B1
:100B1C00004100300041002E004200340000410032
:060B2C002F0041003A0019
:100C0F00E4FDFCC3ED9FEC9E5015E4FBFA0BBB001B
:0F0C1F00010ABA02F8BBCBF50DBD00010C80E451
:010C2E0022A3
:100CE700438901758CFC758AE0D2A9D28CD2AF22D8
:10092900C390003CE0940490003BE09400500EA377
:10093900E0940290003BE094004002803DD3900097
:100949003CE0940290003BE094005007900036741C
:1009590042F022120A82EFB403079000367441F084
:1009690022EFB401079000367443F022EFB4020776
:100979009000367444F022EF70069000367449F006
:01098900224B
:100B4A0090FFFFD292D2932092107F057E00120C62
:100B5A000F2092039000013092FD2093107F057EB2
:100B6A0000120C0F2093039000023093FDAE83AF66
:010B7A0082F8
:010B7B002257
:10057600120D31D2941209E3120CE7120CD1120BB0
:100586004AEF64014E700490003AF0EF64024E7038
:100596000590003A04F0900033E0C3940540DFE490
:1005A600F090002EE004F0E09428401FE4F0A3E071
:1005B6006011C294E4F090003BE0FEA3E0FF120855
:1005C600C38008D29490002F7401F090003AE0B4F2
:1005D6000108120BA312092980069000367449F00F
:1005E600900036E0FF900039E06F6092EFF024BE95
:1005F600601314601514601724FB60182408701724
:10060600120D1B8012120D26800D120D038008128A
:100616000D0F8003120D31900036E0FF120CF70229
:02062600058449
:03000B000207DC0D
:1007DC00C0E0C0F0C083C082C0D075D000C000C0E3
:1007EC0001C002C003C004C005C006C007758CFC64
:1007FC00758AE0900030E004F0E0C394054008E412
:10080C00F0900033E004F0900032E004F0700690B9
:10081C000031E004F0C3900032E09432900031E0FB
:10082C0094004004E4F0A3F0120628D007D006D0C0
:10083C0005D004D003D002D001D000D0D0D082D0CB
:06084C0083D0F0D0E03281
:100C8A00253033640044697374616E63653A2000E9
:090C9A00436F6D6D616E643A0058
:100C2F00E4FDFCC3ED9FEC9E5015E4FBFA0BBB00FB
:0F0C3F00010ABA02F8BBCBF50DBD00010C80E431
:010C4E002283
:0D0C4F00C286C2857F057E00120C5CD28536
:100C5C00E4FDFCC3ED9FEC9E5008000DBD00010CA3
:020C6C0080F115
:010C6E002263
:100CA300C287D286D2857F017E00120C5CE5803339
:060CB3009200C285A200C0
:010CB9002218
:10001600AB07120CA340FBAF038FA0C287120C4F95
:05002600C285020C5C24
:060C6F003EF583E493FF53
:100C7500AB07120CA340FBAF038FA0D287120C4F1A
:050C8500C285020C5CB9
:1009E300E4FA7F381200167F0C1200167F061200FD
:1009F300167F011200167F647E00120C2F7F801277
:100A03000016E4FAEAFF3395E0FE748F2FF5827443
:100A13000C120C6F0AEAB40AEB7FC0120016E4FA58
:100A2300EAFF3395E0FE749A2FF582740C120C6F73
:050A33000AEAB408EB23
:010A3800229B
:0C0CF700AA077FC9120016AF02020C759C
:1008C300E4900004F0A3F0900003F090000974FF9B
:1008D300F0A3740CF0A3748AF0A3EEF0A3EFF07B03
:1008E300017A0079001200937F8A120016E49000C7
:1008F30004F0A3F0900004E0FEA3E0FFC39403EE32
:1009030064809480501F74002FF58274003EF58339
:10091300E0FF120C75900005E004F070D79000041E
:05092300E004F080CFAC
:0109280022AC
:10062800900038E0FFD3648094804018EF3395E061
:10063800FEC3900032E09F900031E09E5033D2908C
:10064800C2918031900038E0FFC3648094805021CB
:10065800EF3395E0FE7CFF7DFF120393C3900032D9
:10066800E09F900031E09E5006C290D291800680B3
:1006780000C290C291900037E0FFD364809480401C
:1006880017EF3395E0FEC3900032E09F900031E011
:100698009E5031D296C29722900037E0FFC3648003
:1006A80094805020EF3395E0FE7CFF7DFF1203938A
:1006B800C3900032E09F900031E09E5005C296D270
:0906C80097228000C296C297221D
:0B0D1B009000387428F0900037F022A0
:0B0D260090003874D8F0900037F022E5
:0C0D0300E4900038F09000377428F022D3
:0C0D0F009000387428F0E4900037F022C7
:0A0D3100E4900038F0900037F02243
:100B320041003F00420041000042003B00004100F2
:070B4200400042003D0000ED
:100CD100C2B4E4F5CBF5CDF5CAF5CCC2CAD2ADC2EA
:060CE100AAD28AD2BA2259
:1008520090003FE06401702ED2B404F0E4F5CDF5CF
:10086200CCD2CAE5CCC3942A40F990003F7402F07E
:10087200C2B4E4F5CDF5CCC2CA30B3FDD2AAD2CA15
:1008820090003F7403F090003FE0B4042A900041CE
:10089200E0FEA3E0FFE4FCFD7B22FAF9F81203BBC1
:1008A200E47B407A1FF9F8120AC890003BEEF0A3ED
:1008B200EFF0E490003FF090003FE0B40502E4F076
:0108C2002213
:0700030090003F7401F022A0
:100BA30090003EE004F0700690003DE004F0C39036
:100BB300003EE0940F90003DE094004007E4F0A372
:050BC300F012075D22A5
:10075D00D2B490003F7401F0E4F5CDF5CCD2CAE5EA
:10076D00CCC3942A40F990003F7402F0C2B4E4F572
:10077D00CDF5CCC2CA30B3FDD2CA30B31290003F12
:10078D00E0B405F6E4F090003BF0A3F0D2AF22AF59
:10079D00CDEFFEADCC7C00E42DFFEC3E900041F0A2
:1007AD00A3EFF0C2CA900041E0FEA3E0FFE4FD7BA1
:1007BD0022FAF9F81203BBE47B407A1FF9F8120A0A
:0F07CD00C890003BEEF0A3EFF0E490003FF02265
:03001300020A39A5
:100A3900C0E0C083C082C0D075D000C004C005C06A
:100A490006C00790003FE0B4031EAFCDEFFEADCC6A
:100A59007C00E42DFFEC3E900041F0A3EFF0C2AA28
:100A6900C2CA90003F7404F0D007D006D005D00464
:090A7900D0D0D082D083D0E0324D
:03002B00020CBA0A
:100CBA00C0E0C083C082C2CFC2AA90003F7405F0D0
:070CCA00D082D083D0E0329C
:040BC8007F017E002B
:100BCC00E4FDFCC3ED9FEC9E5015E4FBFA0BBB005F
:0F0BDC00010ABA02F8BBCBF50DBD00010C80E495
:010BEB0022E7
:100A8200E4900000F0A3F0208016790219E96008D2
:100A9200208005120BC880F4E9700590000004F074
:100AA200208417790219E96008208405120BC88096
:100AB200F4E970069000017402F0900001E0FF90EA
:050AC2000000E02FFF21
:010AC700220C
:100BEC00900043EEF0A3EFF090004374FFF5F01289
:100BFC0003A545F0600C120BC8120A82EF60E912D3
:030C0C000D312285
:10098A00120A82EF604924FE60161460282402705D
:10099A00479000367444F0120D267FF47E018022BF
:1009AA009000367443F0120D267FF47E01120BCCB0
:1009BA00120D0380139000367444F0120D267FE85E
:1009CA007E03120BCC120D0F7FF47E01020BEC900A
:0809DA0000367441F0120D1B00
:0109E20022F2
:030000000206D124
:0C06D100787FE4F6D8FD7581210207183F
:10039300EF8DF0A4A8F0CF8CF0A428CE8DF0A42E7E
:0203A300FE2238
:1003A500A3F8E0C5F025F0F0E5821582700215830B
:0603B500E0C838F0E82268
:1003BB00E88FF0A4CC8BF0A42CFCE98EF0A42CFCE1
:1003CB008AF0EDA42CFCEA8EF0A4CDA8F08BF0A45F
:1003DB002DCC3825F0FDE98FF0A42CCD35F0FCEBBE
:1003EB008EF0A4FEA9F0EB8FF0A4CFC5F02ECD3983
:0F03FB00FEE43CFCEAA42DCE35F0FDE43CFC22F0
:100AC800C2D5E830E70FB2D5E4C39BFBE49AFAE459
:100AD80099F9E498F8EC30E717B2D5120AFE120437
:100AE8009EE4C39BFBE49AFAE499F9E498F880033E
:100AF80012049E30D50DE4C39FFFE49EFEE49DFDE5
:040B0800E49CFC224B
:10002E00E5082409F582E43400F583E00508229002
:10003E000006300703900009E475F0011205300246
:10004E00040A2000E97F2ED2008018EF540F24906E
:10005E00D43440D4FF30040BEF24BFB41A00500345
:10006E002461FFE50960021509050CE50C70020517
:10007E000B30070E900006E475F001120530EF020A
:10008E000450020B7C7403D2078003E4C207F50808
:10009E00900006120547E4F509F50BF50CE509602D
:1000AE00077F2012007180F5750AFFC201C200C2DF
:1000BE0002C203C205C206C20812003DFF700D3017
:1000CE0007057F00120082AF0CAE0B22B4255FC273
:1000DE00D5C20412003DFF24D0B40A00501A75F0A8
:1000EE000A780930D50508B6FF0106C6A426F62003
:1000FE00D5047002D20380D924CFB41A00EF500475
:10010E00C2E5D204020283D20180C6D20080C0D2E0
:10011E000280BCD2D580BAD20580B47F2012007185
:10012E002002077401B5090040F112002EFF1200E3
:10013E00710200ABD208D206809512002EFB12007F
:10014E002EFA12002EF94A4B700679547A037BFF71
:10015E0020022EE509602A7E008E8275830012042D
:10016E002360060EEE650A70F0C2D5EBC0E0EAC061
:10017E00E0E9C0E0EE1202CAD0E0F9D0E0FAD0E039
:10018E00FB12040AFF60AAEBC0E0EAC0E0E9C0E09F
:10019E00120071D0E02401F9D0E03400FAD0E0FB77
:1001AE00E50A0460DCD50AD980877BFF7A0279C61E
:1001BE00D202809C791080027908C206C20880089B
:1001CE00D2D5790A8004790AC2D5E50A047002F5FF
:1001DE000AE4FAFDFEFF12002EFC7B08200113122A
:1001EE00002EFD7B1030000A12002EFE12002EFF94
:1001FE007B20EC3382D592D55013C3E43000069F9A
:10020E00FFE49EFEE42001039DFDE49CFCE4CBF89C
:10021E00C201EC700CCFCECDCCE824F8F870F38090
:10022E0017C3EF33FFEE33FEED33FDEC33FCEB3350
:10023E00FB994002FB0FD8E9EB300105F8D0E0C482
:10024E0048B201C0E00AEC4D4E4F78207B0070C2E0
:10025E00EAB50A0040BCC0E01202CCD0F0D0E020DB
:10026E000104C4C0E0C4B201C0F012005AD0F0D5EF
:10027E00F0EB0200AB12055001485301C2580119B0
:10028E004C01154201C64F01CE4401CE49012E4309
:08029E0001D45501B84601B876
:1002A6004501B847037450011D2D01212E01442B31
:1002B600012523014220035D2A00DD480000013CA0
:1002C6003F3F3F00790AA2D5200314300509B91033
:1002D600020404B9080104A2D52006025001042034
:1002E60002689202B509005034C0E07F203003193D
:1002F6007F30A20272067205500F120323C202C299
:1003060006C205C2087F30800F300503E9C0E0123F
:100316000071300503D0E0F9D0E0B509CC300517FF
:100326007F30B9100C1200717F583004077F788037
:1003360003B908031200713002057F2D0200717F98
:10034600202008F87F2B2006F322920280CF286E09
:10035600756C6C2900D20112002E3001F8C20178AA
:100366000930D50108F60200DD2D50434958120028
:100376002E2403B405004001E490036F931200623B
:0D038600743A120062D2037509040201C22C
:1006DD00020576E493A3F8E493A34003F68001F2B8
:1006ED0008DFF48029E493A3F85407240CC8C3331E
:1006FD00C4540F4420C8834004F456800146F6DFED
:10070D00E4800B0102040810204080900B0CE47E65
:10071D00019360BCA3FF543F30E509541FFEE493E1
:10072D00A360010ECF54C025E060A840B8E493A3A8
:10073D00FAE493A3F8E493A3C8C582C8CAC583CAD3
:10074D00F0A3C8C582C8CAC583CADFE9DEE780BE8B
:010B490000AB
:10040A00BB010689828A83E0225002E722BBFE02F0
:09041A00E32289828A83E4932223
:10042300BB010CE58229F582E5833AF583E022508E
:1004330006E92582F8E622BBFE06E92582F8E222D8
:0D044300E58229F582E5833AF583E49322F2
:10045000BB010689828A83F0225002F722BBFE018B
:02046000F32285
:1004620075F008758200EF2FFFEE33FECD33CDCC51
:1004720033CCC58233C5829BED9AEC99E5829840D4
:100482000CF582EE9BFEED9AFDEC99FC0FD5F0D6B1
:10049200E4CEFBE4CDFAE4CCF9A88222B800C1B9DB
:1004A2000059BA002DEC8BF084CFCECDFCE5F0CB19
:1004B200F97818EF2FFFEE33FEED33FDEC33FCEB52
:1004C20033FB10D703994004EB99FB0FD8E5E4F90D
:1004D200FA227818EF2FFFEE33FEED33FDEC33FCFA
:1004E200C933C910D7059BE99A4007EC9BFCE99AEE
:1004F200F90FD8E0E4C9FAE4CCFB2275F010EF2F33
:10050200FFEE33FEED33FDCC33CCC833C810D70732
:100512009BEC9AE899400AED9BFDEC9AFCE899F86D
:0E0522000FD5F0DAE4CDFBE4CCFAE4C8F92200
:10053000F8E0FBA3A3E0F925F0F0E5821582700254
:070540001583E0FA38F022F8
:09054700EBF0A3EAF0A3E9F022B5
:10055000D083D082F8E4937012740193700DA3A33A
:1005600093F8740193F5828883E47374029368604E
:06057000EFA3A3A380DF4E
:100B7C00EFB40A07740D120B87740A309811A899F8
:100B8C00B8130CC2983098FDA899C298B811F630D9
:070B9C0099FDC299F59922B1
:00000001FF
