:100F5A0042003B00004100402841003F2841003D3B
:100F6A000041003A00410038004100390041004187
:050F7A000041003700FA
:10100900E4FDFCC3ED9FEC9E5015E4FBFA0BBB001D
:0F101900010ABA02F8BBCBF50DBD00010C80E453
:0110280022A5
:1010B500D2B9438901758CFC758AE0D2A9D28CD24C
:0210C500AF2258
:100D5200121121120EF81210B512112B90003DE063
:100D6200C3940540F7E4F0900038E004F0E09428E2
:100D72004023E4F0900049E0FF900048E0FD120BB0
:100D82005F900039E06006C294E4F08008D294904B
:100D920000397401F0900041E014F0E0700504F0B5
:100DA200121121900042E0B401B2E4F090003EE062
:100DB20024BE601314601514601724FB6018240805
:100DC200701712110B8012121116800D1210F3807F
:100DD200081210FF800312112190003EE0FF121052
:040DE200E7020D5EB9
:03000B00020E7270
:100E7200C0E0C0F0C083C082C0D075D000C000C046
:0D0E820001C002C003C004C005C006C007C7
:100E8F00758CFC758AE090003AE004F0E0C394059D
:100E9F004018E4F090003DE004F0900037E004F0DB
:100EAF00E094054005E4F0120CBC90003CE004F027
:100EBF00700690003BE004F0C390003CE094329049
:0E0ECF00003BE094004004E4F0A3F0120C138A
:100EDD00D007D006D005D004D003D002D001D00069
:0B0EED00D0D0D082D083D0F0D0E03213
:100FC3002530336400464C3A20202020636D2F7374
:100FD300202020200046523A20202020636D2F73CA
:050FE300202020200089
:10102900E4FDFCC3ED9FEC9E5015E4FBFA0BBB00FD
:0F103900010ABA02F8BBCBF50DBD00010C80E433
:011048002285
:0D104900C286C2857F057E00121056D2853A
:10105600E4FDFCC3ED9FEC9E5008000DBD00010CA5
:0210660080F117
:011068002265
:10108900C287D286D2857F017E00121056E5803351
:061099009200C285A200D6
:01109F00222E
:1010A000AB0712108940FBAF038FA0C28712104913
:0510B000C2850210568C
:0C0FE80074012FF58274003EF583E0FFD9
:100FF400AB0712108940FBAF038FA0D287121049B0
:05100400C28502105638
:100EF800E4FA7F381210A07F0C1210A07F0612109F
:100F0800A07F011210A07F647E001210297F80123A
:100F180010A0E4FAEAFF3395E0FE74C82FF5827456
:100F28000F3EF583E493FF120FF40AEAB40FE57F4E
:100F3800C01210A0E4FAEAFF3395E0FE74D82FF54A
:100F480082740F3EF583E493FF120FF40AEAB40F9C
:010F5800E5B3
:010F59002275
:0C10E700AA077F8E1210A0AF02020FF4C7
:050B5F00900000EDF024
:100B6400E4900005F0A3F0900004F090000A74FFF4
:100B7400F0A3740FF0A374C3F0A3E4F0A3EFF07B2D
:100B8400017A0079011206407F831210A0E49000DC
:100B940005F0A3F0900005E0FEA3E0FFC39403EE8C
:100BA400648094805013120FE8900006E004F07003
:100BB400E3900005E004F080DB90000A74FFF0A3EA
:100BC400740FF0A374C3F0900000E0FF90000DE4F4
:100BD400F0A3EFF07B017A0079011206407FC31283
:100BE40010A0E4900005F0A3F0900005E0FEA3E05F
:100BF400FFC39403EE648094805013120FE89000B6
:0E0C040006E004F070E3900005E004F080DBF1
:010C120022BF
:040F7F0041004200EB
:10106900E4FDFCC3ED9FEC9E5015E4FBFA0BBB00BD
:0F107900010ABA02F8BBCBF50DBD00010C80E4F3
:011088002245
:1010C700AD071FED600BE4FEEEC3944450F20E80B3
:0110D700F721
:0110D80022F5
:07112B00D2A8D288D2AF2246
:03000300020A5E90
:100A5E00C0E0C083C082C0D075D000C002C003C049
:070A6E0004C005C006C0072B
:100A7500E4FCC2A87F0F1210C730B205D2A8020B42
:100A85004A9000417428F020B2077F011210C780F8
:100A9500F6E4FBE4FA30B2077F011210C780F620B6
:100AA500B2077F011210C780F630B2117F01121014
:100AB500C70CECC3941E40F1D2A8020B4A74432B19
:100AC500F582E43400F583E0C313F0ECC3940840E9
:100AD5000E74432BF582E43400F583E04480F07C0A
:100AE500000AEAB408AF0BEBB404A8900046E0F4A2
:100AF500FF900045E0FE6F6004D2A88048EE24EB2D
:100B0500601724D5602B24FD601F14601424FE702B
:100B15002890003E7441F0802490003E7442F0809D
:100B25001C90003E7443F0801490003E7444F080A5
:100B35000C90003E7449F08004D2A88008900042D1
:050B45007401F0D2A8CC
:100B4A00D007D006D005D004D003D002D0D0D082AE
:050B5A00D083D0E03261
:100C1300900040E0FFD3648094804018EF3395E068
:100C2300FEC390003CE09F90003BE09E5033D29087
:100C3300C2918031900040E0FFC3648094805021D2
:100C4300EF3395E0FE7CFF7DFF120575C390003CFA
:100C5300E09F90003BE09E5006C290D291800680B8
:100C630000C290C29190003FE0FFD3648094804023
:100C730017EF3395E0FEC390003CE09F90003BE00C
:100C83009E5031D296C2972290003FE0FFC364800A
:100C930094805020EF3395E0FE7CFF7DFF120575B5
:100CA300C390003CE09F90003BE09E5005C296D26B
:090CB30097228000C296C297222C
:0B110B009000407428F090003FF0229C
:0B11160090004074D8F090003FF022E1
:0C10F300E4900040F090003F7428F022D0
:0C10FF009000407428F0E490003FF022C4
:0A112100E4900040F090003FF0223F
:100F8300410049004100480041004B0041004A0034
:080F9300C10AC1094100470039
:100CBC00900047E004F0A2B7300A01B3500A90004C
:100CCC004BE004F0A2B7920AA2B6300901B3500A65
:100CDC0090004AE004F0A2B69209900047E06464E8
:100CEC007063F090004BE025E0FF900049F0A3E02A
:100CFC0025E0900048F0E490004BF090004AF0ACF6
:100D0C00071202167BE17A7A7904783F120106E425
:100D1C00FBFAF9783F12001512024A900049EFF0E5
:100D2C00900048E0FCE41202167BE17A7A790478B0
:100D3C003F120106E4FBFAF9783F12001512024A41
:060D4C00900048EFF022C8
:0E10D900E4900047F090004BF090004AF022A7
:10000E000202B6E86480F8E933E83360110460F068
:10001E00ED33EC337009E8FCE9FDEAFEEBFF220458
:10002E0060DED3EB9FEA9EE99DE8C2E78CF0C2F753
:10003E0095F0400CE8CCF8E9CDF9EACEFAEBCFFB1F
:10004E0012028185D0F05804700320D5B3E80470F5
:10005E00075002B2D50202C092D5EC0460F7E4CC90
:10006E00C0E0C398F8603B94186008400DD0E0FBE8
:10007E00020298E4FBFAC9FC8028E830E406E4C9E1
:10008E00FBE4CAFCE830E305E4C9CACBFCE854073C
:10009E006010F8C3E913F9EA13FAEB13FBEC13FC47
:1000AE00D8F130F52FC3E49CFCEF9BFFEE9AFEEDEA
:1000BE0099FDD0E0FBEF4E4D4C701222DB03020295
:1000CE00BDEC2CFCEF33FFEE33FEED33FDED30E7F0
:1000DE00EB020298EF2BFFEE3AFEED39FDD0E0FB7E
:1000EE0050130BBB00030202C0ED13FDEE13FEEF27
:0800FE0013FFEC13FC02029851
:10010600EC4D6011E8497017ED33EC3304600DE4F3
:10011600FCFFFEFD22E933E8330470F80202B61252
:10012600028158046009E4CC248150062850090253
:1001360002C02840030202BDC0E0EB4A7044B98009
:1001460006D0E0FB0202ACEF4E701CBD8008EBFF50
:10015600EAFEE9FD80EBE98DF0A4FEE5F00201EF91
:10016600E9CDF9EAFEEBFFEF89F0A4FCE5F0CE89D4
:10017600F0A42EFFE435F0CD89F0A42DFEE435F091
:100186008067EF4E7005BD80D780C3EF8BF0A4ACBF
:10019600F0EE8BF0A42CFCE435F0F8EF8AF0A42CFA
:1001A600E5F038FCE433CB8DF0A42CFCE5F03BF80D
:1001B600EE8AF0A42CFCE5F038F8E433CF89F0A4FD
:1001C6002CFCE5F038CF3400CE89F0A42FFFE5F003
:1001D6003EFEE433C98DF0A42EFEE5F039CD8AF05B
:1001E600A42FFFE5F03EFEE43DFD33D0E0FB5007D3
:1001F6000BBB000F0202C0EC2CFCEF33FFEE33FE0C
:06020600ED33FD02029839
:10020C0075F020800E75F010800575F0087D007E6D
:10021C00007F003392D530D503120587EC334010A4
:10022C00EF33FFEE33FEED33FDEC33FCD5F0ED2276
:0E023C00E5F0247EA2D513CC92E7CDCEFF22B2
:10024A00EDD2E7CD33EC3392D524814006E4FFFEAC
:10025A00FDFC22FCE4CFCECDCC24E0501174FF800B
:10026A00EDC3CC13CCCD13CDCE13CECF13CF0470A8
:07027A00F030D5DE0205871C
:1005DB00E508240AF582E43400F583E0050822904F
:1005EB00000730070390000AE475F001120595022D
:1005FB00051D2000E97F2ED2008018EF540F2490A8
:10060B00D43440D4FF30040BEF24BFB41A00500392
:10061B002461FFE50960021509050CE50C70020564
:10062B000B30070E900007E475F001120595EF02F1
:10063B000563020F9C7403D2078003E4C207F5081D
:10064B009000071205ACE4F509F50BF50CE5096014
:10065B00077F2012061E80F5750AFFC201C200C279
:10066B0002C203C205C206C2081205EAFF700D30B2
:10067B0007057F0012062FAF0CAE0B22B4255FC20D
:10068B00D5C2041205EAFF24D0B40A00501A75F043
:10069B000A780930D50508B6FF0106C6A426F62050
:1006AB00D5047002D20380D924CFB41A00EF5004C2
:1006BB00C2E5D204020921D20180C6D20080C0D289
:1006CB000280BCD2D580BAD20580B47F2012061E20
:1006DB002002077401B5090040F11205DBFF120679
:1006EB001E020658D208D20680951205DBFB1205B6
:1006FB00DBFA1205DBF94A4B7006791F7A0A7BFF8E
:10070B0020022EE509602A7E008E82758300120579
:10071B003660060EEE650A70F0C2D5EBC0E0EAC09B
:10072B00E0E9C0E0EE120982D0E0F9D0E0FAD0E0C7
:10073B00FB12051DFF60AAEBC0E0EAC0E0E9C0E0D8
:10074B0012061ED0E02401F9D0E03400FAD0E0FB11
:10075B00E50A0460DCD50AD98087D20280A212098F
:10076B006460F7E50A7001041202CBA90A600DE57B
:10077B000A600914F50A120A0CEF60F3EA30E7027B
:10078B00F404C3995079EAF4250A0430E701E40430
:10079B00F50A800D12096460C1EA050A250A1202E6
:1007AB00CBEA900036F030E701E4250A04D50A04C1
:1007BB0020050114120982E4C0E0120A0C900036E5
:1007CB00E0601320E70714F0120606802204F0D035
:1007DB00E014C0E07F00120606E50A60071205FD73
:1007EB00150A800B3005031205FDD0E0020658D028
:1007FB00E00480C4120964609EE50A041202CB90E7
:10080B000036EAF0E50A200502600104240412090F
:01081B00825A
:10081C0074FF04C0E0120A0C120606E50A20050259
:10082C0060031205FDD0E0B50AE87F451206109072
:10083C000036E07F2B30E7047F2DF404C0E0120675
:10084C001ED0E075F00A84C0F0120607D0E0120644
:10085C0007020658791080027908C206C20880087F
:10086C00D2D5790A8004790AC2D5E50A047002F55A
:10087C000AE4FAFDFEFF1205DBFC7B0820011312D3
:10088C0005DBFD7B1030000A1205DBFE1205DBFFD9
:10089C007B20EC3382D592D55013C3E43000069FF5
:1008AC00FFE49EFEE42001039DFDE49CFCE4CBF8F8
:1008BC00C201EC700CCFCECDCCE824F8F870F380EC
:1008CC0017C3EF33FFEE33FEED33FDEC33FCEB33AC
:1008DC00FB994002FB0FD8E9EB300105F8D0E0C4DE
:1008EC0048B201C0E00AEC4D4E4F78207B0070C23C
:1008FC00EAB50A0040BCC0E0120984D0F0D0E02078
:10090C000104C4C0E0C4B201C0F0120607D0F0D597
:10091C00F0EB0206581205B506F55308605806C6EA
:10092C004C06C24208644F086C44086C4906DB4311
:10093C00087255079F4607FF450769470A3F50064F
:10094C00CA2D06CE2E06F12B06D22306EF200A283E
:10095C002A068A48000006E9E50AB4FF03750A0670
:10096C001205DBFC1205DBFD1205DBFE1205DBFFBD
:10097C0090002F020308790AA2D520031430050930
:10098C00B910020404B9080104A2D52006025001D2
:10099C00042002689202B509005034C0E07F203078
:1009AC0003197F30A20272067205500F1209DBC2C6
:1009BC0002C206C205C2087F30800F300503E9C0B1
:1009CC00E012061E300503D0E0F9D0E0B509CC30BA
:1009DC0005177F30B9100C12061E7F583004077FA4
:1009EC00788003B9080312061E3002057F2D02061B
:1009FC001E7F202008F87F2B2006F322920280CF46
:100A0C007F00B40700500B242FF582E43400F583EB
:100A1C00E0FF22286E756C6C2900D2011205DB30C8
:100A2C0001F8C201780930D50108F602068A2D506A
:100A3C004349581205DB2403B405004001E4900A35
:100A4C003A9312060F743A12060FD2037509040278
:020A5C00086030
:10028100E9D2E7C933E833F892D5EDD2E7CD33ECC3
:0702910033FC5002B2D5223C
:10029800EC30E7100FBF000C0EBE00080DBD0004C7
:1002A8000BEB6014A2D5EB13FCED92E7FD2274FF73
:1002B800FCFDFEFF22E480F8A2D574FF13FC7D80CC
:0302C800E480EFE0
:1002CB00F920E73624F950037907E4F42402FBE51F
:1002DB0082158270021583DBF6E024FB501BE9606C
:1002EB0014E4F0E582158270021583E004F0B40A81
:0D02FB0008E4F0D9EE7401F00A22C2D52209
:10030800ED33EC3392D5FA602AB4FF33EDC2E77BC4
:10031800FF60067A03792DE4227A03793620D50422
:100328007A037931224E614E002B494E46002D4901
:100338004E4600E47A08F0A3DAFC7B00740722C07A
:1003480083C082ECC0E0EDC0E0EEC0E0EFC0E0EAC0
:1003580075F010A4CAABF075F04DA42BFBE435F092
:10036800FCEA2410FAEB34C5FBEC34D9FCEDC2E707
:10037800FF75F056A4F42411C5F0F434C58FF0A429
:100388002AE5F03BE43CF020E7141204DDD0E0FF5E
:10039800D0E0FED0E0FDD0E0FC1204108014F4049C
:1003A8001204DDD0E0FFD0E0FED0E0FDD0E0FC128A
:1003B8000106D082D083E0FAEDD2E7CD33EC3324C6
:1003C80082FBE4C3CF33CFCE33CECD33CD33DBF393
:1003D8007B0775F00A846004F0A31B0AE5F0F0A31C
:1003E8008FF0740AA4FFACF08EF0740AA42CFEAC53
:1003F800F050010C8DF0740AA42CFDE435F0F0A344
:05040800DBDE74072299
:10040D000202C0EC5D046005E8590470030202B6F7
:10041D00120281580460F6EC4860F2EC7004FDFEA7
:10042D00FF22C860DB2481C85009C39860025006C2
:10043D000202BD9850CAF582E9294B4A7005AB827C
:10044D000202AC75F0007C1A7880C3EF9BEE9AED3A
:10045D0099400DC3EF9BFFEE9AFEED99FDE842F03A
:10046D00DC23ACF0D0E0FFD0E0FED0E0FDAB82208D
:10047D00E7101BEB60BAEC2CFCEF33FFEE33FEED17
:10048D0033FD020298E803F830E705C0F075F0007F
:10049D00EF2FFFEE33FEED33FD40B830E7C280AAFB
:1004AD003F8000004120000042C80000447A000057
:1004BD00461C400047C35000497424004B189680D9
:1004CD004CBEBC205A0E1BCA6753C21C749DC5AED0
:1004DD00FB60065407601C232312050BEB54386098
:1004ED00091204F7120506120106ECF8EDF9EEFA01
:1004FD00EFCB22EB12050680F1543803241C900437
:10050D00ADFE93FC0EEE93FD0EEE930ECE93FF22F9
:03000000020DE608
:0C0DE600787FE4F6D8FD758121020E2D07
:10051D00BB010689828A83E0225002E722BBFE02DC
:09052D00E32289828A83E493220F
:10053600BB010CE58229F582E5833AF583E022507A
:1005460006E92582F8E622BBFE06E92582F8E222C4
:0D055600E58229F582E5833AF583E49322DE
:10056300BB010689828A83F0225002F722BBFE0177
:02057300F32271
:10057500EF8DF0A4A8F0CF8CF0A428CE8DF0A42E9A
:02058500FE2254
:0E058700C3E49FFFE49EFEE49DFDE49CFC2285
:10059500F8E0FBA3A3E0F925F0F0E58215827002EF
:0705A5001583E0FA38F02293
:0905AC00EBF0A3EAF0A3E9F02250
:1005B500D083D082F8E4937012740193700DA3A3D5
:1005C50093F8740193F5828883E4737402936860E9
:0605D500EFA3A3A380DFE9
:100F9C00EFB40A07740D120FA7740A309811A899B0
:100FAC00B8130CC2983098FDA899C298B811F630B5
:070FBC0099FDC299F599228D
:100DF200020D52E493A3F8E493A34003F68001F2B8
:100E020008DFF48029E493A3F85407240CC8C33301
:100E1200C4540F4420C8834004F456800146F6DFD0
:100E2200E4800B0102040810204080900F5AE47EF7
:100E3200019360BCA3FF543F30E509541FFEE493C5
:100E4200A360010ECF54C025E060A840B8E493A38C
:100E5200FAE493A3F8E493A3C8C582C8CAC583CAB7
:100E6200F0A3C8C582C8CAC583CADFE9DEE780BE6F
:010F9B000055
:00000001FF
