:10067D004200180000410023284100222841001AA1
:10068D0000410017004100150042001B0000410011
:0D069D00160044001D000000004100250073
:0806280090000FEEF0A3EFF0CB
:1006300090001DE0FCA3E0FDA3E0FEA3E0FF90001E
:10064000111200D5900011E0F8A3E0F9A3E0FAA39D
:10065000E0FB90001DE0FCA3E0FDA3E0FEA3E0C3EF
:100660009BFBEE9AFAED99F9EC98F890000FE0FEFA
:0C067000A3E0FFE4FCFDC31200C440C87E
:01067C00225B
:10001600438901758CFE758A70D2A9D28CD2AF2223
:10045600900006EBF0A3EAF0A3E9F01208DB7F6454
:100466007E00120628120555900026E0F9A3E0FF4B
:1004760090000CE0FBA3E0FAA3E0C98FF01200564F
:100486001208937FC87E0012062812055590002692
:10049600E0F9A3E0FF900009E0FBA3E0FAA3E0C9BE
:1004A6008FF01200561208861208A07FC87E00122E
:1004B6000628120555900026E0F9A3E0FF900006F5
:1004C600E0FBA3E0FAA3E0C98FF01200560208860B
:100331001205C6EF70030203C61208D07F2C7E019E
:100341001206289000097401F0A37400F0A374024E
:10035100F0A37401F0A37400F0A37404F07B017A9C
:10036100007900120456900000E0FEA3E0FF900027
:1003710004E0FCA3E0FDC39FEC9E4010900002E06E
:10038100FEA3E0FFED9FEC9E40028039900002E069
:10039100FEA3E0FFD3900001E09F900000E09E509B
:1003A100051208B98018900000E0FEA3E0FFC39099
:1003B1000003E09F900002E09E500D1208AD7FF413
:0803C1007E010207DF1208C5EE
:0103C9002211
:1007130074FF900000F0A3F0D292D2932092157F41
:10072300057E00120628209208900000E4F0A3043E
:10073300F03092FD2093167F057E00120628209349
:1007430009900000E4F0A37402F03093FD900000E0
:05075300E0FEA3E0FF41
:01075800227E
:10079D001208DBD294120016120870120713EF64C0
:1007AD00014E7004900025F0EF64024E700590002C
:1007BD002504F090001AE0C3940540DFE4F09000AA
:1007CD0025E0B4010812081412033180CE1208DBA3
:0207DD0080C9D1
:03000B000201AF40
:1001AF00C0E0C0F0C083C082C0D075D000C000C016
:1001BF0001C002C003C004C005C006C007758CFE95
:1001CF00758A70900017E004F0E0C3940A4027E4AA
:1001DF00F090001AE004F090001DE0FCA3E0FDA3F6
:1001EF00E0FEA3E02401FFE43EFEE43DFDE43CFC21
:1001FF0090001D1200D5900019E004F070069000D9
:10020F0018E004F0C3900019E09432900018E094C5
:10021F00004023E4F0A3F0900015E004F0E09428F0
:10022F004014E4F0A3E06006C294E4F08008D29496
:10023F009000167401F012028890002EE004F090E6
:10024F00002FE0FF90002EE0FED39F5004C2B58038
:10025F0002D2B5EEC394C8400590002EE4F0D0074B
:10026F00D006D005D004D003D002D001D000D0D01A
:09027F00D082D083D0F0D0E0322F
:10028800900023E0FFD3648094804018EF3395E01A
:10029800FEC3900019E09F900018E09E5033D29062
:1002A800C2918031900023E0FFC364809480502184
:1002B800EF3395E0FE7CFF7DFF12002EC3900019FE
:1002C800E09F900018E09E5006C290D29180068070
:1002D80000C290C291900022E0FFD36480948040D5
:1002E80017EF3395E0FEC3900019E09F900018E0E7
:1002F8009E5031D296C29722900022E0FFC36480BC
:1003080094805020EF3395E0FE7CFF7DFF12002E95
:10031800C3900019E09F900018E09E5005C296D245
:0903280097228000C296C29722C0
:0B08C5009000237428F0900022F02225
:0B08D00090002374D8F0900022F0226A
:0C08AD00E4900023F09000227428F02258
:0C08B9009000237428F0E4900022F0224C
:0A08DB00E4900023F0900022F022C8
:1006AA0041002A0042002C000042002600004100BE
:0706BA002B004200280000A4
:10087000C2B4E4F5CBF5CDF5CAF5CCC2CAD2ADC24F
:06088000AAD28AD2BA22BE
:1005550090002AE06401702ED2B404F0E4F5CDF5E4
:10056500CCD2CAE5CCC3942A40F990002A7402F093
:10057500C2B4E4F5CDF5CCC2CA30B3FDD2AAD2CA15
:1005850090002A7403F090002AE0B4042A90002C0D
:10059500E0FEA3E0FFE4FCFD7B22FAF9F81200750A
:1005A500E47B407A1FF9F8120759900026EEF0A374
:1005B500EFF0E490002AF090002AE0B40502E4F0A0
:0105C5002213
:0700030090002A7401F022B5
:10081400900029E004F07006900028E004F0C390F2
:100824000029E0940F900028E094004007E4F0A32E
:05083400F01204D622C1
:1004D600D2B490002A7401F0E4F5CDF5CCD2CAE589
:1004E600CCC3942A40F990002A7402F0C2B4E4F511
:1004F600CDF5CCC2CA30B3FDD2CA30B31290002AB1
:10050600E0B405F6E4F0900026F0A3F0D2AF22AFF7
:10051600CDEFFEADCC7C00E42DFFEC3E90002CF040
:10052600A3EFF0C2CA90002CE0FEA3E0FFE4FD7B3F
:1005360022FAF9F8120075E47B407A1FF9F81207DF
:0F05460059900026EEF0A3EFF0E490002AF02287
:030013000206CA18
:1006CA00C0E0C083C082C0D075D000C004C005C0DD
:1006DA0006C00790002AE0B4031EAFCDEFFEADCCF2
:1006EA007C00E42DFFEC3E90002CF0A3EFF0C2AAB0
:1006FA00C2CA90002A7404F0D007D006D005D004EC
:09070A00D0D0D082D083D0E032BF
:03002B000208596F
:10085900C0E0C083C082C2CFC2AA90002A7405F04A
:07086900D082D083D0E03201
:0806C10041002E0041002F0F43
:10083900E4FDFCC3ED9FEC9E5015E4FBFA0BBB00F5
:0F084900010ABA02F8BBCBF50DBD00010C80E42B
:01085800227D
:0D08860090002F740FF07F2C7E01020839C6
:0D08930090002F7408F07F2C7E01020839C0
:0D08A00090002F7416F07F2C7E01020839A5
:1005C600E4900008F0A3F0208023A37402F09000CA
:1005D6000AE014F0600C2080097F017E00120628D4
:1005E60080EC90000AE0700590000804F020842654
:1005F60090000A7402F090000AE014F0600C208467
:10060600097F017E0012062880EC90000AE0700641
:100616009000097402F0900009E0FF900008E02FB6
:01062600FFD4
:0106270022B0
:1007DF00900006EEF0A3EFF090000674FFF5F01214
:1007EF00004045F0601E900007E024F6F0900006F0
:1007FF00E034FFF07F0A7E001206281205C6EF6074
:05080F00D71208DB22F6
:030000000203CA2E
:0C03CA00787FE4F6D8FD7581070204116D
:10002E00EF8DF0A4A8F0CF8CF0A428CE8DF0A42EE6
:02003E00FE22A0
:10004000A3F8E0C5F025F0F0E58215827002158373
:06005000E0C838F0E822D0
:10005600BB010A89828A83F0E5F0A3F0225006F7F5
:0F00660009A7F01922BBFE06F3E5F009F31922F2
:10007500E88FF0A4CC8BF0A42CFCE98EF0A42CFC2A
:100085008AF0EDA42CFCEA8EF0A4CDA8F08BF0A4A8
:100095002DCC3825F0FDE98FF0A42CCD35F0FCEB07
:1000A5008EF0A4FEA9F0EB8FF0A4CFC5F02ECD39CC
:0F00B500FEE43CFCEAA42DCE35F0FDE43CFC2239
:10075900C2D5E830E70FB2D5E4C39BFBE49AFAE4CB
:1007690099F9E498F8EC30E717B2D512078F12011E
:100779001DE4C39BFBE49AFAE499F9E498F8800331
:1007890012011D30D50DE4C39FFFE49EFEE49DFDDB
:04079900E49CFC22BE
:1000C400EB9FF5F0EA9E42F0E99D42F0E89C45F092
:0100D4002209
:0C00D500ECF0A3EDF0A3EEF0A3EFF0229E
:1003D60002079DE493A3F8E493A34003F68001F299
:1003E60008DFF48029E493A3F85407240CC8C33328
:1003F600C4540F4420C8834004F456800146F6DFF7
:10040600E4800B010204081020408090067DE47E03
:10041600019360BCA3FF543F30E509541FFEE493EB
:10042600A360010ECF54C025E060A840B8E493A3B2
:10043600FAE493A3F8E493A3C8C582C8CAC583CADD
:10044600F0A3C8C582C8CAC583CADFE9DEE780BE95
:0106C9000030
:1000E10075F008758200EF2FFFEE33FECD33CDCCD6
:1000F10033CCC58233C5829BED9AEC99E582984059
:100101000CF582EE9BFEED9AFDEC99FC0FD5F0D635
:10011100E4CEFBE4CDFAE4CCF9A88222B800C1B95F
:100121000059BA002DEC8BF084CFCECDFCE5F0CB9D
:10013100F97818EF2FFFEE33FEED33FDEC33FCEBD6
:1001410033FB10D703994004EB99FB0FD8E5E4F991
:10015100FA227818EF2FFFEE33FEED33FDEC33FC7E
:10016100C933C910D7059BE99A4007EC9BFCE99A72
:10017100F90FD8E0E4C9FAE4CCFB2275F010EF2FB7
:10018100FFEE33FEED33FDCC33CCC833C810D707B7
:100191009BEC9AE899400AED9BFDEC9AFCE899F8F2
:0E01A1000FD5F0DAE4CDFBE4CCFAE4C8F92285
:00000001FF
