:1002DD0042000300004100082841000728410005A5
:1002ED000041000200410000004100010041000AF0
:0502FD000041000900B2
:10030300E4FDFCC3ED9FEC9E5015E4FBFA0BBB0030
:0F031300010ABA02F8BBCBF50DBD00010C80E466
:0103220022B8
:0A041C00AE078E993099FDC29922B7
:10039500759850438920758780758DE6758BE6D2F3
:0603A5008ED2ACD2AF22A3
:1003D200438901758CFC758AE0D2A9D28CD2AF22F6
:10015B00120426D2941203951202571203D2900066
:10016B0005E0C3940540F7E4F0900000E004F0E0F4
:10017B0094284014E4F0A3E06006C294E4F08008F5
:10018B00D2949000017401F090000AE014F0E0703A
:10019B000504F0120426900009E0B401C1E4F090CC
:1001AB000006E024BE601314601514601724FB6076
:1001BB0018240870171204068012120411800D12F5
:1001CB0003EE80081203FA8003120426900006E067
:0601DB00FF1203E2808820
:03000B000201E10E
:1001E100C0E0C0F0C083C082C0D075D000C000C0E4
:1001F10001C002C003C004C005C006C007758CFC65
:10020100758AE0900002E004F0E0C394054008E440
:10021100F0900005E004F0900004E004F070069016
:100221000003E004F0C3900004E09432900003E086
:1002310094004004E4F0A3F0120026D007D006D0C9
:1002410005D004D003D002D001D000D0D0D082D0CC
:0602510083D0F0D0E03282
:030023000202AD29
:0D02AD00C0E0C083C082C0D075D000C00783
:1002BA00309815AF999000097401F0900006EFF09C
:0802CA00C29890000A7428F0AC
:0B02D200D007D0D0D082D083D0E03223
:1003AB0048616E74656368204D435500436F6D6DF6
:0503BB00616E643A00D0
:10032300E4FDFCC3ED9FEC9E5015E4FBFA0BBB0010
:0F033300010ABA02F8BBCBF50DBD00010C80E446
:010342002298
:0D034300C286C2857F057E00120350D28560
:10035000E4FDFCC3ED9FEC9E5008000DBD00010CB8
:0203600080F12A
:010362002278
:10037E00C287D286D2857F017E00120350E580337C
:06038E009200C285A200EE
:010394002246
:10000E00AB0712037E40FBAF038FA0C287120343E0
:05001E00C28502035041
:060363003EF583E493FF68
:10036900AB0712037E40FBAF038FA0D28712034372
:05037900C285020350E3
:10025700E4FA7F3812000E7F0C12000E7F061200A0
:100267000E7F0112000E7F647E001203237F80122F
:10027700000EE4FAEAFF3395E0FE74AB2FF58274C3
:10028700031203630AEAB40BEB7FC012000EE4FA11
:10029700EAFF3395E0FE74B72FF582740312036308
:0502A7000AEAB408EBB7
:0102AC00222F
:0C03E200AA077FC912000EAF02020369D7
:10002600900008E0FFD3648094804018EF3395E099
:10003600FEC3900004E09F900003E09E5033D290F0
:10004600C2918031900008E0FFC364809480502103
:10005600EF3395E0FE7CFF7DFF1203C0C3900004E2
:10006600E09F900003E09E5006C290D291800680E9
:1000760000C290C291900007E0FFD3648094804054
:1000860017EF3395E0FEC3900004E09F900003E075
:100096009E5031D296C29722900007E0FFC364803B
:1000A60094805020EF3395E0FE7CFF7DFF1203C065
:1000B600C3900004E09F900003E09E5005C296D2D4
:0900C60097228000C296C2972225
:0B0406009000087428F0900007F0221E
:0B04110090000874D8F0900007F02263
:0C03EE00E4900008F09000077428F02252
:0C03FA009000087428F0E4900007F02246
:0A042600E4900008F0900007F022B7
:030000000200CF2C
:0C00CF00787FE4F6D8FD75812002011650
:1003C000EF8DF0A4A8F0CF8CF0A428CE8DF0A42E51
:0203D000FE220B
:1000DB0002015BE493A3F8E493A34003F68001F2DF
:1000EB0008DFF48029E493A3F85407240CC8C33326
:1000FB00C4540F4420C8834004F456800146F6DFF5
:10010B00E4800B01020408102040809002DDE47EA5
:10011B00019360BCA3FF543F30E509541FFEE493E9
:10012B00A360010ECF54C025E060A840B8E493A3B0
:10013B00FAE493A3F8E493A3C8C582C8CAC583CADB
:10014B00F0A3C8C582C8CAC583CADFE9DEE780BE93
:0103020000FA
:00000001FF
